:100000000C9457000C94A8060C94A8060C94A8060F
:100010000C94A8060C94A8060C94A8060C94A806A8
:100020000C94A8060C94A8060C94A8060C949F02A5
:100030000C94A8060C94A8060C94C8050C94A80669
:100040000C94A8060C94A8060C94A8060C94A80678
:100050000C94A8060C94A8060C94A8060C94A80668
:100060000C94A8060C94A8060C94A8060C94A80658
:100070000C94A8060C94A8060C94A8060C94A80648
:100080000C94A8060C94A8060C94A8067D0580057F
:100090008305860589058C058F059C059F05A205AE
:1000A000A505A805AB05AE050100011580001124CA
:1000B0001FBECFEFD0E1DEBFCDBFE8EAF0E040E009
:1000C00019C0B791A79137912791079107FD0EC0ED
:1000D00097918791EF01F92FE82F0BBF07900D92B1
:1000E000A217B307D9F7FE011BBE04C01D92A217C9
:1000F000B307E1F7ED3AF40721F70E9483000C946F
:060100006606F894FFCF33
:1001060061E070E080E090E00E942904BD9A8C983E
:10011600F8940E945B0678940E94DA050E943E06D7
:100126000E9406030F2EC12CD12CFAEFEF2EF3E41A
:10013600FF2EF02D0E94F901BC01990F880B990B37
:100146000E94640260930001709301018093020192
:100156009093030120E030E040E251E40E949C06C7
:1001660088230CF058C060E177E281E090E00E94BD
:10017600EB0560E177E281E090E00E94FC052FEF5D
:1001860083EC99E0215080409040E1F700C00000E8
:100196000E944E060E94DA050E941E060E94F90180
:1001A6008C010E942E060E94F901EC010E943E0677
:1001B600C0920401D0920501E0920601F092070177
:1001C6000E940603C017D1076CF460E070E080E07F
:1001D60090E00E94EB0560E177E280E090E00E940B
:1001E600FC050FC00C171D0764F460E070E080E0AA
:1001F60090E00E94FC0560E177E280E090E00E94DA
:10020600EB052FEF8BE792E9215080409040E1F714
:1002160000C000008FCF0E9406036FEF7FEF80E0E3
:1002260090E00E94EB056FEF7FEF80E090E00E9488
:04023600FC0580CF74
:10023A0010C00E94880658F00E94810640F029F4F6
:10024A005F3F29F00C94960651110C9490060C9479
:10025A00A5060E94E50368F39923B1F3552391F3A8
:10026A00951B550BBB27AA2762177307840738F01B
:10027A009F5F5F4F220F331F441FAA1FA9F335D078
:10028A000E2E3AF0E0E832D091505040E695001C2C
:10029A00CAF72BD0FE2F29D0660F771F881FBB1FE6
:1002AA00261737074807AB07B0E809F0BB0B802DC4
:1002BA00BF01FF2793585F4F3AF09E3F510578F0F0
:1002CA000C9496060C9490065F3FE4F3983ED4F3A0
:1002DA00869577956795B795F7959F5FC9F7880FC4
:1002EA00911D9695879597F90895E1E0660F771F16
:1002FA00881FBB1F621773078407BA0720F0621BA7
:0E030A00730B840BBA0BEE1F88F7E095089575
:10031800EF92FF920F931F93CF93DF938C01EB0122
:100328007A01C901689F9001699F300D789F300D4F
:100338001124032E000C440B550B60E074E284EF8B
:1003480090E00E94070421503109309381002093E6
:100358008000EAE8F0E08081C82BC08305301105F1
:1003680021F00E30110591F021C0EBE8F0E080811A
:100378008160808380818D7F8083EAE8F0E08081DE
:100388008860808380818F7E808310C0EBE8F0E0F6
:1003980080818E7F8083808182608083EAE8F0E0BC
:1003A80080818860808380818061808382E0E81614
:1003B800F104A1F4EBE8F0E080818068808380811B
:1003C8008F7B808380818062808380818F7E808321
:1003D80080818860808380818B7F8083DF91CF914B
:0A03E8001F910F91FF90EF90089510
:1003F2000F931F93C59A05E30A95F1F70000C5987C
:10040200809114018230C9F510921401809110017B
:100412009091110140910C0150910D012091120116
:100422003091130160E070E0BA0155274427A0E043
:10043200B0E0821B930BA109B1098A019B01080F4D
:10044200191F2A1F3B1FC901B8010093080110930D
:10045200090120930A0130930B010E9462022DECE4
:100462003CE349E654E40E94A106609304017093C0
:10047200050180930601909307018FE39CE90197A0
:10048200F1F700C0000010920D0110920C011092C1
:100492000F0110920E018EB580648EBD84E286BF7C
:1004A20087B7846287BF60910401709105018091D2
:1004B2000601909107010E947A06CB011F910F91CC
:0204C20008959B
:1004C400E89409C097FB3EF49095809570956195EA
:1004D4007F4F8F4F9F4F9923A9F0F92F96E9BB27A0
:1004E4009395F695879577956795B795F111F8CF1C
:1004F400FAF4BB0F11F460FF1BC06F5F7F4F8F4F87
:100504009F4F16C0882311F096E911C0772321F07C
:100514009EE8872F762F05C0662371F096E8862F14
:1005240070E060E02AF09A95660F771F881FDAF76B
:0A053400880F9695879597F90895B2
:10053E001F921FB61F9211248F939F9380911401C7
:10054E0081110EC086B597B5909313018093120159
:10055E008EB58F7B8EBD10920F0110920E0115C0BD
:10056E0080911401813089F486B597B5909311016D
:10057E008093100180910E0190910F0190930D01C7
:10058E0080930C0187B78B7D87BF809114018F5F9D
:10059E00809314019F918F911F901FBE1F901895ED
:1005AE000E94ED0388F09F5798F0B92F9927B75105
:1005BE00B0F0E1F0660F771F881F991F1AF0BA95F9
:1005CE00C9F714C0B13091F00E948F06B1E00895C2
:1005DE000C948F06672F782F8827B85F39F0B93FB4
:1005EE00CCF3869577956795B395D9F73EF49095AC
:0E05FE008095709561957F4F8F4F9F4F0895A8
:10060C0022E330E042E050E062E070E08EE090E007
:10061C000E948C0161E070E083E090E00E94310563
:10062C0061E070E084E090E00E94310541E050E030
:10063C0066E070E084E090E00E94730541E050E0D9
:0E064C0067E070E084E090E00E94730508957E
:10065A006115710591F061307105F1F4E1E6F0E0A0
:10066A00408121E030E0B90102C0660F771F8A9508
:10067A00E2F7CB01842B80830895E1E6F0E0408124
:10068A0021E030E0B90102C0660F771F8A95E2F7D0
:0A069A00CB0180958423808308952E
:1006A4006115710591F061307105F1F4E2E6F0E055
:1006B400408121E030E0B90102C0660F771F8A95BE
:1006C400E2F7CB01842B80830895E2E6F0E04081D9
:1006D40021E030E0B90102C0660F771F8A95E2F786
:0A06E400CB018095842380830895E4
:1006EE006115710591F061307105F1F4E4E6F0E009
:1006FE00408121E030E0B90102C0660F771F8A9574
:10070E00E2F7CB01842B80830895E4E6F0E040818C
:10071E0021E030E0B90102C0660F771F8A95E2F73B
:0A072E00CB01809584238083089599
:100738006115710591F061307105F1F4E5E6F0E0BD
:10074800408121E030E0B90102C0660F771F8A9529
:10075800E2F7CB01842B80830895E5E6F0E0408141
:1007680021E030E0B90102C0660F771F8A95E2F7F1
:0A077800CB0180958423808308954F
:10078200990F0008550FAA0BE0E8FEEF16161706A0
:10079200E807F907C0F012161306E407F50798F008
:1007A200621B730B840B950B39F40A2661F0232B21
:1007B200242B252B21F408950A2609F4A140A6959D
:0807C2008FEF811D811D0895D8
:1007CA0057FD9058440F551F59F05F3F71F04795F8
:1007DA00880F97FB991F61F09F3F79F087950895DD
:1007EA00121613061406551FF2CF4695F1DF08C0FC
:1007FA00161617061806991FF1CF86957105610519
:04080A0008940895B1
:10080E00A1E21A2EAA1BBB1BFD010DC0AA1FBB1F06
:10081E00EE1FFF1FA217B307E407F50720F0A21B78
:10082E00B30BE40BF50B661F771F881F991F1A94E5
:10083E0069F760957095809590959B01AC01BD010F
:04084E00CF01089539
:100852006115710581F061307105D1F44AB321E06F
:1008620030E0B90102C0660F771F8A95E2F7CB012B
:10087200842B8ABB08954AB321E030E0B90102C05B
:10088200660F771F8A95E2F7CB01809584238ABB96
:020892000895C7
:100894006115710581F061307105D1F44BB321E02C
:1008A40030E0B90102C0660F771F8A95E2F7CB01E9
:1008B400842B8BBB08954BB321E030E0B90102C017
:1008C400660F771F8A95E2F7CB01809584238BBB53
:0208D400089585
:1008D6006115710581F061307105D1F447B321E0EE
:1008E60030E0B90102C0660F771F8A95E2F7CB01A7
:1008F600842B87BB089547B321E030E0B90102C0DD
:10090600660F771F8A95E2F7CB018095842387BB14
:02091600089542
:100918006115710581F061307105D1F448B321E0AA
:1009280030E0B90102C0660F771F8A95E2F7CB0164
:10093800842B88BB089548B321E030E0B90102C098
:10094800660F771F8A95E2F7CB018095842388BBD1
:02095800089500
:10095A006115710581F061307105D1F444B321E06C
:10096A0030E0B90102C0660F771F8A95E2F7CB0122
:10097A00842B84BB089544B321E030E0B90102C05E
:10098A00660F771F8A95E2F7CB018095842384BB93
:02099A000895BE
:10099C006115710581F061307105D1F445B321E029
:1009AC0030E0B90102C0660F771F8A95E2F7CB01E0
:1009BC00842B85BB089545B321E030E0B90102C01A
:1009CC00660F771F8A95E2F7CB018095842385BB50
:0209DC0008957C
:1009DE006115710581F061307105D1F441B321E0EB
:1009EE0030E0B90102C0660F771F8A95E2F7CB019E
:1009FE00842B81BB089541B321E030E0B90102C0E0
:100A0E00660F771F8A95E2F7CB018095842381BB11
:020A1E00089539
:100A20006115710581F061307105D1F442B321E0A7
:100A300030E0B90102C0660F771F8A95E2F7CB015B
:100A4000842B82BB089542B321E030E0B90102C09B
:100A5000660F771F8A95E2F7CB018095842382BBCE
:020A60000895F7
:100A62006115710581F061307105D1F442B121E067
:100A720030E0B90102C0660F771F8A95E2F7CB0119
:100A8200842B82B9089542B121E030E0B90102C05D
:100A9200660F771F8A95E2F7CB018095842382B98E
:020AA2000895B5
:100AA4006115710581F061307105D1F443B121E024
:100AB40030E0B90102C0660F771F8A95E2F7CB01D7
:100AC400842B83B9089543B121E030E0B90102C019
:100AD400660F771F8A95E2F7CB018095842383B94B
:020AE400089573
:100AE600FC01CB01E730F105C8F4BA01EA5BFF4F20
:100AF6000C9471060E94290408950E946B040895BF
:100B06000E94AD0408950E94EF0408950E943105E5
:0E0B160008950E942D0308950E94770308950C
:100B2400FC01CB01E730F105C8F4BA01E35BFF4FE8
:100B34000C9471060E944A0408950E948C0408953E
:100B44000E94CE0408950E94100508950E94520543
:0E0B540008950E94520308950E949C03089584
:100B62008430910551F08530910561F0039771F45D
:100B72007093870060938600089570938500609358
:0E0B82008400089570938300609382000895AC
:100B90008F938FB78F939F9380910E0190910F0148
:100BA000019690930F0180930E019F918F918FBFBB
:040BB0008F91189574
:100BB40022E330E042E050E062E070E08EE090E05A
:100BC4000E948C0161E070E085E090E00E943105B4
:020BD400089582
:100BD600CF93DF93EC0183E090E00E94B105AE0174
:100BE60066E070E084E090E00E949205DF91CF918C
:020BF600089560
:100BF800CF93DF93EC0184E090E00E94B105AE0151
:100C080067E070E084E090E00E949205DF91CF9168
:020C180008953D
:100C1A00092E0394000C11F4882352F0BB0F40F400
:100C2A00BF2B11F460FF04C06F5F7F4F8F4F9F4F40
:020C3A0008951B
:100C3C0060ED77E085E090E00E94B1052FEF8DE349
:100C4C0099E4215080409040E1F700C000000895E5
:100C5C0060EA7FE085E090E00E94B1052FEF8DE324
:100C6C0099E4215080409040E1F700C000000895C5
:100C7C0068EB7BE085E090E00E94B1052FEF8DE3FF
:100C8C0099E4215080409040E1F700C000000895A5
:100C9C0060E070E080E090E00E94EB0560E070E0C6
:0A0CAC0080E090E00E94FC0508952E
:100CB6001FBC1EBC1DBC1CBC8EB581648EBD87B717
:060CC600846287BF08955F
:100CCC00EC010E94AD060E94AC06CE010E94AE065D
:060CDC00CE010E94AA06F1
:100CE200EE0FFF1F0024001C0BBE0790F691E02DB3
:020CF200099463
:0E0CF4000E94D7026894B1110C9490060895E6
:0E0D020000240A94161617061806090608950E
:0E0D100000240A941216130614060506089510
:0E0D1E00E894BB2766277727CB0197F9089545
:0C0D2C0097F99F6780E870E060E0089590
:0A0D38000E94C10308F481E0089551
:080D42000E941D010C940D0636
:060D4A009FEF80EC08950C
:040D50000C940000FF
:040D54000E94810078
:020D58000895FC
:020D5A000895FA
:020D5C000895F8
:00000001FF
